{
  "contractName": "Marketplace",
  "abi": [
    {
      "anonymous": false,
      "inputs": [
        {
          "indexed": false,
          "internalType": "uint256",
          "name": "id",
          "type": "uint256"
        },
        {
          "indexed": false,
          "internalType": "string",
          "name": "title",
          "type": "string"
        },
        {
          "indexed": false,
          "internalType": "string",
          "name": "description",
          "type": "string"
        },
        {
          "indexed": false,
          "internalType": "uint256",
          "name": "price",
          "type": "uint256"
        },
        {
          "indexed": false,
          "internalType": "address",
          "name": "owner",
          "type": "address"
        }
      ],
      "name": "ContentCreated",
      "type": "event"
    },
    {
      "anonymous": false,
      "inputs": [
        {
          "indexed": false,
          "internalType": "uint256",
          "name": "id",
          "type": "uint256"
        },
        {
          "indexed": false,
          "internalType": "address",
          "name": "buyer",
          "type": "address"
        }
      ],
      "name": "ContentPurchased",
      "type": "event"
    },
    {
      "inputs": [
        {
          "internalType": "uint256",
          "name": "",
          "type": "uint256"
        }
      ],
      "name": "contents",
      "outputs": [
        {
          "internalType": "uint256",
          "name": "id",
          "type": "uint256"
        },
        {
          "internalType": "string",
          "name": "title",
          "type": "string"
        },
        {
          "internalType": "string",
          "name": "description",
          "type": "string"
        },
        {
          "internalType": "uint256",
          "name": "price",
          "type": "uint256"
        },
        {
          "internalType": "address payable",
          "name": "owner",
          "type": "address"
        },
        {
          "internalType": "bool",
          "name": "isSold",
          "type": "bool"
        }
      ],
      "stateMutability": "view",
      "type": "function"
    },
    {
      "inputs": [],
      "name": "nextContentId",
      "outputs": [
        {
          "internalType": "uint256",
          "name": "",
          "type": "uint256"
        }
      ],
      "stateMutability": "view",
      "type": "function"
    },
    {
      "inputs": [
        {
          "internalType": "string",
          "name": "_title",
          "type": "string"
        },
        {
          "internalType": "string",
          "name": "_description",
          "type": "string"
        },
        {
          "internalType": "uint256",
          "name": "_price",
          "type": "uint256"
        }
      ],
      "name": "createContent",
      "outputs": [],
      "stateMutability": "nonpayable",
      "type": "function"
    },
    {
      "inputs": [
        {
          "internalType": "uint256",
          "name": "_id",
          "type": "uint256"
        }
      ],
      "name": "buyContent",
      "outputs": [],
      "stateMutability": "payable",
      "type": "function"
    }
  ],
  "bytecode": "0x608060405234801561000f575f80fd5b506110008061001d5f395ff3fe60806040526004361061003e575f3560e01c80630a248d7f14610042578063252a8caa1461006c578063b5ecf91214610094578063d6cfa440146100d5575b5f80fd5b34801561004d575f80fd5b506100566100f1565b604051610063919061065c565b60405180910390f35b348015610077575f80fd5b50610092600480360381019061008d91906107ec565b6100f6565b005b34801561009f575f80fd5b506100ba60048036038101906100b59190610874565b610292565b6040516100cc96959493929190610972565b60405180910390f35b6100ef60048036038101906100ea9190610874565b610402565b005b5f5481565b5f8111610138576040517f08c379a000000000000000000000000000000000000000000000000000000000815260040161012f90610a29565b60405180910390fd5b6040518060c001604052805f5481526020018481526020018381526020018281526020013373ffffffffffffffffffffffffffffffffffffffff1681526020015f151581525060015f805481526020019081526020015f205f820151815f015560208201518160010190816101ad9190610c41565b5060408201518160020190816101c39190610c41565b50606082015181600301556080820151816004015f6101000a81548173ffffffffffffffffffffffffffffffffffffffff021916908373ffffffffffffffffffffffffffffffffffffffff16021790555060a08201518160040160146101000a81548160ff0219169083151502179055509050507f4b973a5b518442fc1ef5b6e47e2a77db24572b0899975fc5afafe77966074f255f548484843360405161026f959493929190610d30565b60405180910390a15f8081548092919061028890610dbc565b9190505550505050565b6001602052805f5260405f205f91509050805f0154908060010180546102b790610a74565b80601f01602080910402602001604051908101604052809291908181526020018280546102e390610a74565b801561032e5780601f106103055761010080835404028352916020019161032e565b820191905f5260205f20905b81548152906001019060200180831161031157829003601f168201915b50505050509080600201805461034390610a74565b80601f016020809104026020016040519081016040528092919081815260200182805461036f90610a74565b80156103ba5780601f10610391576101008083540402835291602001916103ba565b820191905f5260205f20905b81548152906001019060200180831161039d57829003601f168201915b505050505090806003015490806004015f9054906101000a900473ffffffffffffffffffffffffffffffffffffffff16908060040160149054906101000a900460ff16905086565b5f60015f8381526020019081526020015f2090505f548210610459576040517f08c379a000000000000000000000000000000000000000000000000000000000815260040161045090610e4d565b60405180910390fd5b80600301543410156104a0576040517f08c379a000000000000000000000000000000000000000000000000000000000815260040161049790610eb5565b60405180910390fd5b8060040160149054906101000a900460ff16156104f2576040517f08c379a00000000000000000000000000000000000000000000000000000000081526004016104e990610f1d565b60405180910390fd5b3373ffffffffffffffffffffffffffffffffffffffff16816004015f9054906101000a900473ffffffffffffffffffffffffffffffffffffffff1673ffffffffffffffffffffffffffffffffffffffff1603610583576040517f08c379a000000000000000000000000000000000000000000000000000000000815260040161057a90610f85565b60405180910390fd5b806004015f9054906101000a900473ffffffffffffffffffffffffffffffffffffffff1673ffffffffffffffffffffffffffffffffffffffff166108fc3490811502906040515f60405180830381858888f193505050501580156105e9573d5f803e3d5ffd5b5060018160040160146101000a81548160ff0219169083151502179055507f2febd4b8e0a3f915ed8e3f7e154ad8207f9f8d6da9330ad7d5a17909f0e18d5d8233604051610638929190610fa3565b60405180910390a15050565b5f819050919050565b61065681610644565b82525050565b5f60208201905061066f5f83018461064d565b92915050565b5f604051905090565b5f80fd5b5f80fd5b5f80fd5b5f80fd5b5f601f19601f8301169050919050565b7f4e487b71000000000000000000000000000000000000000000000000000000005f52604160045260245ffd5b6106d48261068e565b810181811067ffffffffffffffff821117156106f3576106f261069e565b5b80604052505050565b5f610705610675565b905061071182826106cb565b919050565b5f67ffffffffffffffff8211156107305761072f61069e565b5b6107398261068e565b9050602081019050919050565b828183375f83830152505050565b5f61076661076184610716565b6106fc565b9050828152602081018484840111156107825761078161068a565b5b61078d848285610746565b509392505050565b5f82601f8301126107a9576107a8610686565b5b81356107b9848260208601610754565b91505092915050565b6107cb81610644565b81146107d5575f80fd5b50565b5f813590506107e6816107c2565b92915050565b5f805f606084860312156108035761080261067e565b5b5f84013567ffffffffffffffff8111156108205761081f610682565b5b61082c86828701610795565b935050602084013567ffffffffffffffff81111561084d5761084c610682565b5b61085986828701610795565b925050604061086a868287016107d8565b9150509250925092565b5f602082840312156108895761088861067e565b5b5f610896848285016107d8565b91505092915050565b5f81519050919050565b5f82825260208201905092915050565b5f5b838110156108d65780820151818401526020810190506108bb565b5f8484015250505050565b5f6108eb8261089f565b6108f581856108a9565b93506109058185602086016108b9565b61090e8161068e565b840191505092915050565b5f73ffffffffffffffffffffffffffffffffffffffff82169050919050565b5f61094282610919565b9050919050565b61095281610938565b82525050565b5f8115159050919050565b61096c81610958565b82525050565b5f60c0820190506109855f83018961064d565b818103602083015261099781886108e1565b905081810360408301526109ab81876108e1565b90506109ba606083018661064d565b6109c76080830185610949565b6109d460a0830184610963565b979650505050505050565b7f5072696365206d7573742062652067726561746572207468616e2030000000005f82015250565b5f610a13601c836108a9565b9150610a1e826109df565b602082019050919050565b5f6020820190508181035f830152610a4081610a07565b9050919050565b7f4e487b71000000000000000000000000000000000000000000000000000000005f52602260045260245ffd5b5f6002820490506001821680610a8b57607f821691505b602082108103610a9e57610a9d610a47565b5b50919050565b5f819050815f5260205f209050919050565b5f6020601f8301049050919050565b5f82821b905092915050565b5f60088302610b007fffffffffffffffffffffffffffffffffffffffffffffffffffffffffffffffff82610ac5565b610b0a8683610ac5565b95508019841693508086168417925050509392505050565b5f819050919050565b5f610b45610b40610b3b84610644565b610b22565b610644565b9050919050565b5f819050919050565b610b5e83610b2b565b610b72610b6a82610b4c565b848454610ad1565b825550505050565b5f90565b610b86610b7a565b610b91818484610b55565b505050565b5b81811015610bb457610ba95f82610b7e565b600181019050610b97565b5050565b601f821115610bf957610bca81610aa4565b610bd384610ab6565b81016020851015610be2578190505b610bf6610bee85610ab6565b830182610b96565b50505b505050565b5f82821c905092915050565b5f610c195f1984600802610bfe565b1980831691505092915050565b5f610c318383610c0a565b9150826002028217905092915050565b610c4a8261089f565b67ffffffffffffffff811115610c6357610c6261069e565b5b610c6d8254610a74565b610c78828285610bb8565b5f60209050601f831160018114610ca9575f8415610c97578287015190505b610ca18582610c26565b865550610d08565b601f198416610cb786610aa4565b5f5b82811015610cde57848901518255600182019150602085019450602081019050610cb9565b86831015610cfb5784890151610cf7601f891682610c0a565b8355505b6001600288020188555050505b505050505050565b5f610d1a82610919565b9050919050565b610d2a81610d10565b82525050565b5f60a082019050610d435f83018861064d565b8181036020830152610d5581876108e1565b90508181036040830152610d6981866108e1565b9050610d78606083018561064d565b610d856080830184610d21565b9695505050505050565b7f4e487b71000000000000000000000000000000000000000000000000000000005f52601160045260245ffd5b5f610dc682610644565b91507fffffffffffffffffffffffffffffffffffffffffffffffffffffffffffffffff8203610df857610df7610d8f565b5b600182019050919050565b7f436f6e74656e7420646f6573206e6f74206578697374000000000000000000005f82015250565b5f610e376016836108a9565b9150610e4282610e03565b602082019050919050565b5f6020820190508181035f830152610e6481610e2b565b9050919050565b7f4e6f7420656e6f756768204554482073656e74000000000000000000000000005f82015250565b5f610e9f6013836108a9565b9150610eaa82610e6b565b602082019050919050565b5f6020820190508181035f830152610ecc81610e93565b9050919050565b7f436f6e74656e7420616c726561647920736f6c640000000000000000000000005f82015250565b5f610f076014836108a9565b9150610f1282610ed3565b602082019050919050565b5f6020820190508181035f830152610f3481610efb565b9050919050565b7f43616e6e6f742062757920796f7572206f776e20636f6e74656e7400000000005f82015250565b5f610f6f601b836108a9565b9150610f7a82610f3b565b602082019050919050565b5f6020820190508181035f830152610f9c81610f63565b9050919050565b5f604082019050610fb65f83018561064d565b610fc36020830184610d21565b939250505056fea2646970667358221220fd018e27fa361f1f0a42d0a94d3b62c3e3633561932d5a3570052904074c3a7364736f6c63430008150033",
  "immutableReferences": {},
  "source": "// contracts/Marketplace.sol\n// SPDX-License-Identifier: MIT\npragma solidity ^0.8.0;\n\ncontract Marketplace {\n    struct Content {\n        uint id;\n        string title;\n        string description;\n        uint price;\n        address payable owner;\n        bool isSold;\n    }\n\n    uint public nextContentId;\n    mapping(uint => Content) public contents;\n\n    event ContentCreated(uint id, string title, string description, uint price, address owner);\n    event ContentPurchased(uint id, address buyer);\n\n    function createContent(string memory _title, string memory _description, uint _price) public {\n        require(_price > 0, \"Price must be greater than 0\");\n        \n        contents[nextContentId] = Content(nextContentId, _title, _description, _price, payable(msg.sender), false);\n        emit ContentCreated(nextContentId, _title, _description, _price, msg.sender);\n        \n        nextContentId++;\n    }\n\n    function buyContent(uint _id) public payable {\n        Content storage content = contents[_id];\n        require(_id < nextContentId, \"Content does not exist\");\n        require(msg.value >= content.price, \"Not enough ETH sent\");\n        require(!content.isSold, \"Content already sold\");\n        require(content.owner != msg.sender, \"Cannot buy your own content\");\n\n        content.owner.transfer(msg.value);\n        content.isSold = true;\n        emit ContentPurchased(_id, msg.sender);\n    }\n}\n",
  "sourcePath": "/Users/reeteshkumar/learning-marketplace/contracts/Marketplace.sol",
  "compiler": {
    "name": "solc",
    "version": "0.8.21+commit.d9974bed.Emscripten.clang"
  },
  "schemaVersion": "3.4.16",
  "updatedAt": "2024-08-28T13:31:04.061Z",
  "devdoc": {
    "kind": "dev",
    "methods": {},
    "version": 1
  },
  "userdoc": {
    "kind": "user",
    "methods": {},
    "version": 1
  }
}